:020000040800F2
:1000000000000120654A0008754800087B48000888
:1000100081480008874800088D480008000000005B
:100020000000000000000000000000002193000814
:100030009348000800000000719500089D6F0008BB
:10004000B54A0008B54A0008B54A0008B54A000894
:10005000B54A0008B54A0008B54A0008B54A000884
:10006000B54A0008B54A0008B54A0008B54A000874
:10007000B54A0008B54A0008B54A0008B54A000864
:10008000B54A0008B54A0008B54A0008000000005B
:10009000000000000000000000000000B54A000859
:1000A000B54A0008A1480008B54A0008B54A00084A
:1000B000B54A0008B54A0008B54A0008B54A000824
:1000C000B54A0008B54A0008B54A0008B54A000814
:1000D000B54A0008B54A0008B54A0008000000000B
:1000E000B54A0008B54A0008B54A000800000000FB
:1000F000000000000000000000000000B54A0008F9
:1001000000000000B54A0008B54A0008B54A0008DA
:1001100000000000000000000000000000000000DF
:10012000B54A0008B54A0008B54A0008B54A0008B3
:10013000B54A0008000000000000000000000000B8
:10014000000000000000000000000000B54A0008A8
:10015000B54A0008B54A0008B54A0008B54A000883
:10016000B54A0008B54A0008000000000000000081
:10017000000000000000000000000000000000007F
:1001800000000000B54A0008000000000000000068
:04019000B54A000864
:1001A00010B5054C237833B9044B13B10448AFF3B1
:1001B00000800123237010BDEC010020000000002E
:1001C000A006010808B5034B1BB103490348AFF370
:1001D000008008BD00000000F0010020A00601081A
:1001E000034613F8012B002AFBD1181A0138704777
:1001F00001F0FF01102A2BDB10F0070F08D010F8D8
:10020000013B013A8B422DD010F0070F42B3F6D1DB
:10021000F0B441EA012141EA014122F007047FF0F4
:1002200000070023F0E80256083C85EA010586EA4B
:10023000010685FA47F5A3FA87F586FA47F6A5FA87
:1002400087F68EB9EED1F0BC01F0FF0102F0070293
:1002500032B110F8013B013A83EA010313B1F8D13E
:100260000020704701387047002D06BF354603381F
:10027000073815F0010F07D1013015F4807F02BF58
:10028000013015F4C03F0130F0BC0138704700BFA9
:1002900081F0004102E000BF83F0004330B54FEA37
:1002A00041044FEA430594EA050F08BF90EA020FA4
:1002B0001FBF54EA000C55EA020C7FEA645C7FEA37
:1002C000655C00F0E2804FEA5454D4EB5555B8BF5A
:1002D0006D420CDD2C4480EA020281EA030382EACB
:1002E000000083EA010180EA020281EA0303362D5D
:1002F00088BF30BD11F0004F4FEA01314FF4801C30
:100300004CEA113102D0404261EB410113F0004F41
:100310004FEA03334CEA133302D0524263EB4303F8
:1003200094EA050F00F0A780A4F10104D5F1200E96
:100330000DDB02FA0EFC22FA05F2801841F10001F1
:1003400003FA0EF2801843FA05F359410EE0A5F1C5
:1003500020050EF1200E012A03FA0EFC28BF4CF0F6
:10036000020C43FA05F3C01851EBE37101F00045AC
:1003700007D54FF0000EDCF1000C7EEB00006EEBB9
:100380000101B1F5801F1BD3B1F5001F0CD3490843
:100390005FEA30004FEA3C0C04F101044FEA44529A
:1003A00012F5800F80F09A80BCF1004F08BF5FEA21
:1003B000500C50F1000041EB045141EA050130BD01
:1003C0005FEA4C0C404141EB0101013C28BFB1F513
:1003D000801FE9D291F0000F04BF01460020B1FA5E
:1003E00081F308BF2033A3F10B03B3F120020CDA31
:1003F0000C3208DD02F1140CC2F10C0201FA0CF00F
:1004000021FA02F10CE002F11402D8BFC2F1200C73
:1004100001FA02F120FA0CFCDCBF41EA0C01904029
:10042000E41AA2BF01EB0451294330BD6FEA040472
:100430001F3C1CDA0C340EDC04F11404C4F120025D
:1004400020FA04F001FA02F340EA030021FA04F36F
:1004500045EA030130BDC4F10C04C4F1200220FAC6
:1004600002F001FA04F340EA0300294630BD21FA04
:1004700004F0294630BD94F0000F83F4801306BFCA
:1004800081F480110134013D4EE77FEA645C18BFBE
:100490007FEA655C29D094EA050F08BF90EA020F55
:1004A00005D054EA000C04BF1946104630BD91EA4D
:1004B000030F1EBF0021002030BD5FEA545C05D150
:1004C0004000494128BF41F0004130BD14F580048F
:1004D0003CBF01F5801130BD01F0004545F0FE4103
:1004E00041F470014FF0000030BD7FEA645C1ABF38
:1004F000194610467FEA655C1CBF0B46024650EA6F
:10050000013406BF52EA033591EA030F41F400219A
:1005100030BD00BF90F0000F04BF0021704730B520
:100520004FF4806404F132044FF000054FF00001F5
:1005300050E700BF90F0000F04BF0021704730B5B6
:100540004FF4806404F1320410F0004548BF40428B
:100550004FF000013EE700BF42004FEAE2014FEAE0
:1005600031014FEA02701FBF12F07F4393F07F4FBB
:1005700081F06051704732F07F4208BF704793F0BE
:100580007F4F04BF41F40021704730B54FF46074D1
:1005900001F0004521F000411CE700BF50EA0102D4
:1005A00008BF704730B54FF000050AE050EA01027D
:1005B00008BF704730B511F0004502D5404261EBED
:1005C00041014FF4806404F132045FEA915C3FF42E
:1005D000D8AE4FF003025FEADC0C18BF03325FEACB
:1005E000DC0C18BF033202EBDC02C2F1200300FA7C
:1005F00003FC20FA02F001FA03FE40EA0E0021FAA1
:1006000002F11444BDE600BF70B54FF0FF0C4CF48E
:10061000E06C1CEA11541DBF1CEA135594EA0C0F40
:1006200095EA0C0F00F0DEF82C4481EA030621EA7B
:100630004C5123EA4C5350EA013518BF52EA0335B6
:1006400041F4801143F4801338D0A0FB02CE4FF068
:100650000005E1FB02E506F00042E0FB03E54FF098
:100660000006E1FB03569CF0000F18BF4EF0010E90
:10067000A4F1FF04B6F5007F64F5407404D25FEA8C
:100680004E0E6D4146EB060642EAC62141EA55513F
:100690004FEAC52040EA5E504FEACE2EB4F1FD0C81
:1006A00088BFBCF5E06F1ED8BEF1004F08BF5FEAFF
:1006B000500E50F1000041EB045170BD06F00046B1
:1006C00046EA010140EA020081EA0301B4EB5C045E
:1006D000C2BFD4EB0C0541EA045170BD41F4801156
:1006E0004FF0000E013C00F3AB8014F1360FDEBF7B
:1006F000002001F0004170BDC4F10004203C35DA57
:100700000C341BDC04F11404C4F1200500FA05F3D9
:1007100020FA04F001FA05F240EA020001F000427A
:1007200021F0004110EBD37021FA04F642EB0601F0
:100730005EEA430E08BF20EAD37070BDC4F10C041A
:10074000C4F1200500FA04F320FA05F001FA04F2DE
:1007500040EA020001F0004110EBD37041F10001CA
:100760005EEA430E08BF20EAD37070BDC4F12005D5
:1007700000FA05F24EEA020E20FA04F301FA05F23D
:1007800043EA020321FA04F001F0004121FA04F2E5
:1007900020EA020000EBD3705EEA430E08BF20EAB5
:1007A000D37070BD94F0000F0FD101F000464000EF
:1007B00041EB010111F4801F08BF013CF7D041EA71
:1007C000060195F0000F18BF704703F00046520075
:1007D00043EB030313F4801F08BF013DF7D043EA46
:1007E0000603704794EA0C0F0CEA135518BF95EAFC
:1007F0000C0F0CD050EA410618BF52EA4306D1D183
:1008000081EA030101F000414FF0000070BD50EAA1
:10081000410606BF1046194652EA430619D094EA2B
:100820000C0F02D150EA013613D195EA0C0F05D115
:1008300052EA03361CBF104619460AD181EA030169
:1008400001F0004141F0FE4141F470014FF0000021
:1008500070BD41F0FE4141F4780170BD70B54FF0BC
:10086000FF0C4CF4E06C1CEA11541DBF1CEA13553C
:1008700094EA0C0F95EA0C0F00F0A7F8A4EB05041E
:1008800081EA030E52EA03354FEA013100F0888015
:100890004FEA03334FF0805545EA131343EA1263DE
:1008A0004FEA022245EA111545EA10654FEA002693
:1008B0000EF000419D4208BF964244F1FD0404F54C
:1008C000407402D25B084FEA3202B61A65EB0305A8
:1008D0005B084FEA32024FF480104FF4002CB6EB65
:1008E000020E75EB030E22BFB61A754640EA0C00E5
:1008F0005B084FEA3202B6EB020E75EB030E22BF25
:10090000B61A754640EA5C005B084FEA3202B6EB65
:10091000020E75EB030E22BFB61A754640EA9C0024
:100920005B084FEA3202B6EB020E75EB030E22BFF4
:10093000B61A754640EADC0055EA060E18D04FEAB2
:10094000051545EA16754FEA06164FEAC30343EA52
:1009500052734FEAC2025FEA1C1CC0D111F4801F1F
:100960000BD141EA00014FF000004FF0004CB6E718
:1009700011F4801F04BF01430020B4F1FD0C88BFB7
:10098000BCF5E06F3FF6AFAEB5EB030C04BFB6EBC2
:10099000020C5FEA500C50F1000041EB045170BDB5
:1009A0000EF0004E4EEA113114EB5C04C2BFD4EBE2
:1009B0000C0541EA045170BD41F480114FF0000E66
:1009C000013C90E645EA060E8DE60CEA135594EAE2
:1009D0000C0F08BF95EA0C0F3FF43BAF94EA0C0FE5
:1009E0000AD150EA01347FF434AF95EA0C0F7FF45A
:1009F00025AF104619462CE795EA0C0F06D152EAAE
:100A000003353FF4FDAE1046194622E750EA410691
:100A100018BF52EA43067FF4C5AE50EA41047FF4A2
:100A20000DAF52EA43057FF4EBAE12E74FF0FF3C07
:100A300006E000BF4FF0010C02E000BF4FF0010CD8
:100A40004DF804CD4FEA410C7FEA6C5C4FEA430C51
:100A500018BF7FEA6C5C1BD001B050EA410C0CBFA0
:100A600052EA430C91EA030F02BF90EA020F002002
:100A7000704710F1000F91EA030F58BF994208BF69
:100A800090422CBFD8176FEAE37040F00100704726
:100A90004FEA410C7FEA6C5C02D150EA013C07D17D
:100AA0004FEA430C7FEA6C5CD6D152EA033CD3D0C8
:100AB0005DF8040B704700BF8446104662468C46C2
:100AC0001946634600E000BF01B5FFF7B7FF0028F5
:100AD00048BF10F1000F01BD4DF808EDFFF7F4FF1E
:100AE0000CBF012000205DF808FB00BF4DF808EDA9
:100AF000FFF7EAFF34BF012000205DF808FB00BFCC
:100B00004DF808EDFFF7E0FF94BF012000205DF8ED
:100B100008FB00BF4DF808EDFFF7CEFF94BF0120A2
:100B200000205DF808FB00BF4DF808EDFFF7C4FF9B
:100B300034BF012000205DF808FB00BF4FEA410CE4
:100B40007FEA6C5C02D150EA013C0AD14FEA430CC7
:100B50007FEA6C5C02D152EA033C02D14FF0000004
:100B600070474FF0010070474FEA410212F5001242
:100B700015D211D56FF47873B3EB625212D94FEAE4
:100B8000C12343F0004343EA505311F0004F23FACE
:100B900002F018BF404270474FF00000704750EA23
:100BA000013005D111F0004008BF6FF000407047E0
:100BB0004FF00000704700BF4A0011D212F500123A
:100BC00011D20DD56FF47873B3EB62520ED44FEAA5
:100BD000C12343F0004343EA505323FA02F0704725
:100BE0004FF00000704750EA013002D14FF0FF3063
:100BF00070474FF0000070474FEA4102B2F1E04306
:100C000024BFB3F5001CDCF1FE5C0DD901F0004CF3
:100C10004FEAC0024CEA5070B2F1004F40EB830043
:100C200008BF20F00100704711F0804F21D113F16F
:100C30003872BCBF01F00040704741F480114FEAA8
:100C40005252C2F11802C2F1200C10FA0CF320FA31
:100C500002F018BF40F001004FEAC1234FEAD3234E
:100C600003FA0CFC40EA0C0023FA02F34FEA4303B8
:100C7000CCE77FEA625307D150EA01331EBF4FF041
:100C8000FE4040F44000704701F0004040F0FE405C
:100C900040F40000704700BF53B94AB9002908BFAB
:100CA00000281CBF4FF0FF314FF0FF3000F0AAB911
:100CB000ADF1080C6DE904CE00F03CF8DDF804E07D
:100CC000DDE9022304B0704738B500220023044652
:100CD0000D46FFF70BFF28B920462946BDE83840EE
:100CE00000F00AB8204605F1004100F005F8404246
:100CF00061EB410138BD00BFD0B50C4B0022064668
:100D00000F46FFF781FCFFF757FF0446FFF702FC91
:100D1000074B0022FFF778FC02460B463046394667
:100D2000FFF7BAFAFFF748FF2146D0BD0000F03DBB
:100D30000000F0412DE9F047089D04468E46002B47
:100D40004DD18A42944669D9B2FA82F252B101FA7F
:100D500002F3C2F1200120FA01F10CFA02FC41EA8F
:100D6000030E94404FEA1C48210CBEFBF8F61FFA14
:100D70008CF708FB16E341EA034306FB07F19942AF
:100D80000AD91CEB030306F1FF3080F01F81994262
:100D900040F21C81023E63445B1AA4B2B3FBF8F03C
:100DA00008FB103344EA034400FB07F7A7420AD9C3
:100DB0001CEB040400F1FF3380F00A81A74240F2EB
:100DC00007816444023840EA0640E41B00261DB156
:100DD000D4400023C5E900433146BDE8F0878B428B
:100DE00009D9002D00F0EF800026C5E9000130464A
:100DF0003146BDE8F087B3FA83F6002E4AD18B4224
:100E000002D3824200F2F980841A61EB03030120CD
:100E10009E46002DE0D0C5E9004EDDE702B9FFDEB9
:100E2000B2FA82F2002A40F09280A1EB0C014FEA64
:100E30001C471FFA8CFE0126200CB1FBF7F307FBC1
:100E4000131140EA01410EFB03F0884208D91CEB64
:100E5000010103F1FF3802D2884200F2CB80434601
:100E6000091AA4B2B1FBF7F007FB101144EA0144E0
:100E70000EFB00FEA64508D91CEB040400F1FF316F
:100E800002D2A64500F2BB800846A4EB0E0440EA5D
:100E900003409CE7C6F12007B34022FA07FC4CEA66
:100EA000030C20FA07F401FA06F31C43F9404FEA59
:100EB0001C4900FA06F3B1FBF9F8200C1FFA8CFE6E
:100EC00009FB181140EA014108FB0EF0884202FAC2
:100ED00006F20BD91CEB010108F1FF3A80F0888083
:100EE000884240F28580A8F102086144091AA4B240
:100EF000B1FBF9F009FB101144EA014100FB0EFEC1
:100F00008E4508D91CEB010100F1FF346CD28E45EF
:100F10006AD90238614440EA0840A0FB0294A1EB80
:100F20000E01A142C846A64656D353D05DB1B3EBDD
:100F3000080261EB0E0101FA07F722FA06F3F1400D
:100F40001F43C5E9007100263146BDE8F087C2F1B4
:100F50002003D8400CFA02FC21FA03F3914001432C
:100F60004FEA1C471FFA8CFEB3FBF7F007FB103665
:100F70000B0C43EA064300FB0EF69E4204FA02F411
:100F800008D91CEB030300F1FF382FD29E422DD964
:100F9000023863449B1B89B2B3FBF7F607FB163399
:100FA00041EA034106FB0EF38B4208D91CEB010119
:100FB00006F1FF3816D28B4214D9023E6144C91A99
:100FC00046EA004638E72E46284605E70646E3E6A9
:100FD0001846F8E64B45A9D2B9EB020864EB0C0EB3
:100FE0000138A3E74646EAE7204694E74046D1E7C2
:100FF000D0467BE7023B614432E7304609E7644470
:10100000023842E7704700BF80B483B000AF786019
:101010007B68DB7A23F07F03DBB2002B14BF012354
:101020000023DBB218460C37BD465DF8047B7047E1
:1010300080B582B000AF78607868FFF7E5FF0346BF
:10104000002B05D07B68DB7AC3F30603DBB201E03B
:101050007B68DB8818460837BD4680BD80B582B006
:1010600000AF78607868FFF7CFFF0346002B01D010
:101070007B6801E07B681B6818460837BD4680BD69
:1010800080B483B000AF7860002318460C37BD46AB
:101090005DF8047B704780B586B000AFF860B9603A
:1010A0007A6000237B617B685A1E7A60002B14BF34
:1010B00001230023DBB2002B0FD0FB681B68083331
:1010C0001A68BB68591CB9601B781946F8689047C4
:1010D00002467B6913447B61E5E77B691846183754
:1010E000BD4680BD0EB480B597B000AF786007F103
:1010F00010037B6507F16803FB60FB68BB60BB689E
:101100007A6E4021786D0CF057FE38653B6D002BF0
:1011100001DA00232AE03B6D3F2B14D93B6D0133EC
:1011200018460AF093FE03467B657B6D002B01D1C8
:1011300000231BE03B6D01331946FB687A6E786D26
:101140000CF03AFE38657B681B680C331B683A6DFF
:10115000796D7868984703463B6507F110037A6D0F
:101160009A4202D0786D0AF079FE3B6D18465C37E2
:10117000BD46BDE8804003B07047000080B483B036
:1011800000AF7860044A7B681A607B6818460C37A9
:10119000BD465DF8047B7047C807010880B582B082
:1011A00000AF78607868FFF7E9FF0821786809F0F8
:1011B0001FFC7B6818460837BD4680BD80B582B0ED
:1011C00000AF78607868FFF71FFF0346002B01D05F
:1011D0000A2301E07B689B8818460837BD4680BD1E
:1011E00080B483B000AF78600B46FB707A68D37A26
:1011F000F97861F3C713D37200BF0C37BD465DF8B1
:10120000047B704780B582B000AF78603960786841
:10121000FFF7FAFE0346002B0ED03B6803F07F0376
:10122000D9B27A68D37A61F30603D3727A683B68DD
:10123000134400221A700DE03B689AB27B68DA8092
:101240007B681B68002B05D07B681A683B681344D9
:1012500000221A7000BF0837BD4680BD80B582B03D
:1012600000AF786039607868FFF7CEFE034683F000
:101270000103DBB2002B03D03B689AB27B689A80F3
:1012800000BF0837BD4680BD80B582B000AF786032
:1012900039607868FFF7B8FE034683F00103DBB2DC
:1012A000002B02D07B683A681A6000BF0837BD4641
:1012B00080BD80B582B000AF78607868FFF7A4FE8B
:1012C0000346002B01D07B6801E07B681B68184651
:1012D0000837BD4680BD80B582B000AF7860396008
:1012E000786800F01DF83B68002B08D03868FEF7DE
:1012F00077FF03461A463968786800F03DF97B6845
:1013000018460837BD4680BD80B582B000AF786012
:10131000786800F01DF87B6818460837BD4680BD28
:1013200080B582B000AF786000217868FFF758FF81
:1013300000217868FFF7A8FF00217868FFF78EFF8B
:1013400000217868FFF75EFF00BF0837BD4680BD0B
:1013500080B582B000AF78607868FFF755FE03462D
:1013600083F00103DBB2002B07D07868FFF7A1FF01
:101370000346002B01D0012300E00023002B06D000
:101380007868FFF796FF034618460AF067FD78680D
:10139000FFF7C6FF00BF0837BD4680BD80B582B0ED
:1013A00000AF786039607868FFF758FE0346002B7D
:1013B00008D07868FFF702FF02463B68934201D8E5
:1013C000012300E00023002B01D001231FE0396836
:1013D000786800F020F80346002B14BF0123002397
:1013E000DBB2002B12D07868FFF722FE0346002BF9
:1013F0000CBF01230023DBB2002B05D07868FFF778
:1014000058FF034600221A70012300E0002318460B
:101410000837BD4680BD80B58AB000AF78603960BE
:101420003B68092B4AD87868FFF7EEFD0346002B8E
:1014300005D17868FFF712FE0346002B01D1012386
:1014400000E00023002B0FD07868FFF7F1FD034682
:10145000BB8201217868FFF7C3FEBB8A1946786812
:10146000FFF7D0FE012383E07868FFF7F7FD014620
:1014700007F108033A6818460AF0F8FC7868FFF7A5
:1014800018FF034618460AF0E9FC7868FFF7D0FD1C
:101490000346FB8201217868FFF7A2FE7868FFF718
:1014A00008FF07F108033A6819460AF0DFFCFB8AD7
:1014B00019467868FFF7A6FE012359E03B68103310
:1014C00023F00F037B627B6AB3F5803F01D30023D7
:1014D0004EE07868FFF7ACFD03467B847868FFF741
:1014E00093FD0346002B01D0002303E07868FFF74B
:1014F000E0FE0346796A18460BF042FCF861FB698E
:10150000002B34D07868FFF759FE03460133BB61E6
:101510007868FFF779FD0346002B05D07B680B2226
:101520001946F8690AF0B0FC7A6ABB699A4209D98F
:10153000FA69BB69D0187A6ABB69D31A1A460021C6
:101540000AF0BCFC00217868FFF74AFE7B6A013B89
:1015500019467868FFF782FEF9697868FFF794FE0C
:101560007B8C19467868FFF74DFE012300E00023CD
:1015700018462837BD4680BD80B584B000AFF860FE
:10158000B9607A607968F868FFF708FF0346002BB6
:101590000CBF01230023DBB2002B04D0F868FFF757
:1015A000D7FEFB680EE0F868FFF783FE7B68013327
:1015B0001A46B9680AF068FC7B681946F868FFF7B4
:1015C00021FEFB6818461037BD4680BD80B582B04D
:1015D00000AF786039607B68012B08D13B684FF61B
:1015E000FF72934203D109490948FFF774FE7B68F3
:1015F000002B07D13B684FF6FF72934202D104489B
:10160000FFF782FE00BF0837BD4680BDC006010857
:101610000802002080B500AF4FF6FF710120FFF7F0
:10162000D5FF80BD80B500AF4FF6FF710020FFF7FA
:10163000CDFF80BD80B584B000AF78607B681B684B
:101640001B7CFB607B6893F838301A46FB6802FB12
:1016500003F3FB60FB68DB00FB607B685B6BFA6895
:10166000002118460AF02AFC00BF1037BD4680BD95
:1016700080B586B002AF78600B46FB701346BB7036
:101680007B681B681B7CFB73FB78BB817B685B6B97
:10169000BB60FB7B9BB2BA8912FB03F3BB81BB89A6
:1016A000DB00BB81BB89BA681344BB60F97BBA78A5
:1016B000BB6800930B460021786801F09EFD00BFD7
:1016C0001037BD4680BD80B584B000AF7860002380
:1016D000FB737B6893F838307B737B6893F8393001
:1016E000BB737B681B685B7C3B73BA7BFB7B1946D7
:1016F0007868FFF7BDFFFB7B0133FB73BB7B0133D6
:10170000BB73FA7B7B7B9A4203D2BA7B3B7B9A42C8
:10171000EBD300BF1037BD4680BD80B582B000AFAF
:1017200078607868FFF7CFFF786801F0B7FD00BFF9
:101730000837BD4680BD80B582B000AF78600B46EB
:10174000FB707B68FA7883F839207B681B6B1B6819
:10175000786898477B681B6B5B687868984700BF20
:101760000837BD4680BD80B582B000AF78607B6829
:1017700093F89330002B02D07868FFF75BFF0021CD
:101780007868FFF7D8FF00BF0837BD4680BD80B539
:1017900084B000AF78607868FFF795FF7B6893F8B6
:1017A0003930FB737B6893F83820FB7B1344FB7361
:1017B0007B681B685B7CFA7B9A4204D3786801F0F3
:1017C0006DFD00230DE07B6893F89330002B02D071
:1017D0007868FFF72FFFFB7B19467868FFF7ABFFB0
:1017E000012318461037BD4680BD80B582B000AFDA
:1017F00078607868FFF7B7FF7868FFF7C8FF03469F
:10180000002BF9D100217868FFF795FF00BF08375A
:10181000BD4680BD80B483B000AF78607B6808228D
:101820001A70034B18460C37BD465DF8047B7047B1
:101830001402002080B588B002AFF860B9607A6009
:101840003B603B6800937B680B4A0C49F86801F0E9
:1018500085FD07F113031846FFF7DCFF7861FA7C7A
:10186000BB680093064B7969F86801F01DF800BF6A
:101870001837BD4680BD00BF992E0008F53000081E
:101880002B27000880B483B000AF78600B46FB7054
:10189000FB787A6813447B607B681B7818460C37AA
:1018A000BD465DF8047B704780B485B000AF7860BA
:1018B0000B46FB70FB787A6813447B607B681B786F
:1018C000FB817B6801337B60FB891B02FB817B68AA
:1018D0001B789AB2FB891344FB81FB8918461437A5
:1018E000BD465DF8047B704780B582B000AF78607C
:1018F000396000213868FFF7C5FF03461A467B6848
:101900001A7001213868FFF7BDFF03461A467B684D
:101910005A7002213868FFF7B5FF03461A467B6804
:101920009A7003213868FFF7ADFF03461A467B68BB
:10193000DA7004213868FFF7A5FF03461A467B6872
:101940001A7105213868FFF79DFF03461A467B6828
:101950005A7106213868FFF795FF03461A467B68DF
:101960009A7107213868FFF78DFF03461A467B6896
:10197000DA7108213868FFF785FF03461A467B684D
:101980001A7209213868FFF77DFF03465AB27B6857
:101990005A720A213868FFF775FF03465AB27B680E
:1019A0009A720B213868FFF76DFF03465AB27B68C5
:1019B000DA720C213868FFF765FF03465AB27B687C
:1019C0001A730D213868FFF75DFF03465AB27B6832
:1019D0005A730E213868FFF755FF03465AB27B68E9
:1019E0009A730F213868FFF74DFF03465AB27B68A0
:1019F000DA7310213868FFF745FF03465AB27B6857
:101A00001A7411213868FFF74FFF03461A467B68A6
:101A10005A8213213868FFF747FF03461A467B684E
:101A20009A8215213868FFF73FFF03461A467B6804
:101A3000DA8200BF0837BD4680BD80B485B000AFF4
:101A400078600B46FB707B681B7B7B737B681B6835
:101A50001B78FB73FA7B7B7B42FA03F3FB737B7B84
:101A6000BB73BA7BFB781344BB73BB7B072B1AD9C0
:101A700008233B733A7B7B7BD31A3B737B681B68E1
:101A80005A1C7B681A607B681B681B781A463B7B74
:101A900002FA03F35AB297F90F3013435BB2FB73A8
:101AA000BB7B083BBB73FB784FF0FF3202FA03F3BA
:101AB000DBB2DB43DAB2FB7B1340FB737B68BA7BA0
:101AC0001A73FB7B18461437BD465DF8047B7047DC
:101AD00080B584B000AF78600B46FB70FB78194688
:101AE0007868FFF7AAFF0346FB730123BB73FB78FB
:101AF000013BFB7097F90E20FB7802FA03F3BB73EE
:101B0000FA7BBB7BD31ADBB2FB7397F90F30184615
:101B10001037BD4680BD90B482B000AF0446084681
:101B200011461A462346FB8003467B710B463B71E8
:101B30001346FB70FB78022B14D0022B19DC002B10
:101B400002D0012B07D014E097F904309AB2FB8839
:101B50001344FB8014E097F905309AB2FB881344D4
:101B6000FB800DE097F904309BB2FA88D31AFB8012
:101B700006E097F905309BB2FA88D31AFB8000BFC4
:101B8000FB8818460837BD4690BC704790B482B0B9
:101B900000AF0446084611461A462346FB8003461A
:101BA0007B710B463B711346FB70FB78022B14D004
:101BB000022B19DC002B02D0012B07D014E097F97F
:101BC00005309AB2FB881344FB8014E097F9043087
:101BD0009BB2FA88D31AFB800DE097F905309BB2CF
:101BE000FA88D31AFB8006E097F904309AB2FB8892
:101BF0001344FB8000BFFB8818460837BD4690BCE5
:101C0000704780B588B002AF78600B46FB70134612
:101C1000BB707B6860333B61FB78FB753B6993F974
:101C200008307B753B6993F909303B753B6993F943
:101C30000A30FB73FA7B7B7DD31AFB73FB7BBB758E
:101C4000FA7DFB7B9A4201D2FB7DBB753B699B8889
:101C5000BB813B69DB887B8197F9151097F91420CC
:101C60003B691B7CB889FFF791FF0346BB8197F95D
:101C7000151097F914203B691B7C7889FFF74BFFFF
:101C800003467B81BB78002B10D03B699A7B7B6835
:101C900083F89220BB7D98B23B691B7C7A89B98915
:101CA00000930346786800F088FB13E03B695B7B98
:101CB000002B0FD13B69DA7B7B6883F89220BB7DD8
:101CC00098B23B691B7C7A89B9890093034678688E
:101CD00000F073FBFA7DFB7B9A4209D3FA7DFB7B14
:101CE000D31AFB7500237B753B7D01333B759DE764
:101CF00000BF7A7DFB7D13447B7597F915203B6906
:101D00001A7297F914203B695A7200BF1837BD4602
:101D100080BD80B584B000AF786039607B68603387
:101D2000FB60FB683A681A60FB6800221A737B68E4
:101D300093F878301946F868FFF77FFE03465AB2E9
:101D4000FB689A727B6893F879301946F868FFF758
:101D500074FE03465AB2FB68DA727B6893F89220ED
:101D6000FB689A73FB689B7B002B0CBF012300234D
:101D7000DBB21A46FB68DA7300BF1037BD4680BD80
:101D800080B58AB002AF786039607B6860337B6170
:101D900039687868FFF7BDFF7B6893F86B30FB7498
:101DA0007B6893F87A3019467869FFF791FE03460D
:101DB000BB747B6893F87B3019467869FFF788FE1F
:101DC00003467B747B6893F87C3019467869FFF78B
:101DD0007FFE03463B747B6993F90A30002B40F386
:101DE000D7807B699888FA7C7B7C1344DBB25B42AA
:101DF000DBB25AB27B691B7C97F91210FFF7C6FE63
:101E000003461A467B699A807B69D888FA7C7B7C7A
:101E10001344DBB25B42DBB25AB27B691B7C97F99D
:101E20001210FFF778FE03461A467B69DA807B6959
:101E30009B88FB837B69DB887B83FB8BBB837B8BF2
:101E40003B837B691B7C032B5AD801A252F823F0F9
:101E5000611E00087D1E0008A51E0008D91E00088E
:101E60007B6993F90A309AB2BB8B1344BB8397F911
:101E700013309AB23B8B13443B8341E097F9133004
:101E80009BB2FA8BD31AFB83FB8B0133FB83BB8B97
:101E90000133BB837B6993F90A309AB23B8B1344BD
:101EA0003B832DE07B6993F90A309BB2FA8BD31AFE
:101EB000FB83FB8B0133FB83BB8B0133BB8397F924
:101EC00013309BB27A8BD31A7B837B8B01337B835A
:101ED0003B8B01333B8313E097F913309AB2BB8BF2
:101EE0001344BB837B6993F90A309BB27A8BD31A74
:101EF0007B837B8B01337B833B8B01333B8300BF35
:101F0000B88B7A8BF98B3B8B00930346786800F093
:101F100045FB0346002B02D197F910303AE07B696C
:101F200000221A727B6900225A727B6893F876301D
:101F300019467869FFF781FD0346FB737B6893F8C8
:101F4000773019467869FFF778FD0346BB73FB7B52
:101F5000002219467868FFF754FEBB7B0122194620
:101F60007868FFF74EFE01217869FFF766FD0346AA
:101F7000002BECD17B6993F9093097F913209A4231
:101F800000DDD2E700BF7B699A7B7B6883F89220F3
:101F900097F9103018462037BD4680BD80B586B011
:101FA00000AF78600B467B807B689B6D7B617B69B3
:101FB00017337B617B88FF2B2AD87B88602B07D95E
:101FC0007B68B3F888301A467B6913447B6109E06B
:101FD0007B88402B06D97B68B3F886301A467B692C
:101FE00013447B617B6901331B78002B4ED07B69E6
:101FF0001B789BB27A889A4202D17B69023349E00E
:102000007B6901331B781A467B6913447B61E9E7DE
:102010007B68B3F88A301A467B6913447B617B691D
:102020003B6100213869FFF73FFC03461A467B6994
:1020300013447B6102213869FFF736FC0346FB81BC
:102040003B6904333B61FA897B889A42E9D37B6917
:102050001B78FB81FB891B02FB817B6901331B78A9
:102060009AB2FB891343FB81FB89002B10D0FA89BC
:102070007B889A4202D17B6903330BE07B69023390
:102080001B781A467B6913447B61E0E700BF00E0E0
:1020900000BF002318461837BD4680BD80B586B006
:1020A00000AFF860084611461A4603467B810B468E
:1020B0003B811346FB800023FB82FB687A89A3F8EF
:1020C0006420FB683A89A3F86620FB881946F86803
:1020D000FFF764FF38613B69002B05D03969F86868
:1020E000FFF74EFE0346FB82FB8A18461837BD46B3
:1020F00080BD000080B584B000AFF860084611468E
:102100001A4603467B810B463B811346FB80FB68E6
:1021100093F87030032B33D801A252F823F000BF9C
:102120003121000845210008592100086D210008CF
:10213000FB68DB6DF868984703461A463B891344F1
:102140003B811DE0FB68DB6DF868984703461A4643
:102150007B899B1A7B8113E0FB68DB6DF8689847ED
:1021600003461A463B899B1A3B8109E0FB68DB6DFD
:10217000F868984703461A467B8913447B8100BF61
:10218000FB883A897989F868FFF788FF0346184683
:102190001037BD4680BD00BF80B483B000AF78600B
:1021A0007B689B6D002B5DD07B6893F981207B68F9
:1021B00083F88E207B6893F982207B6883F88F20D8
:1021C0007B6893F88D30002B4DD07B6893F88D3071
:1021D000012B1CD17B6893F98E207B6893F98330A7
:1021E0009A4205DA7B6893F983207B6883F88E2016
:1021F0007B6893F98F207B6893F984309A4232DDB3
:102200007B6893F984207B6883F88F202BE07B68C0
:1022100093F98E301A467B6893F97E3019467B68B5
:1022200093F980300B449A420DDA7B6893F97E3043
:10223000DAB27B6893F98030DBB21344DBB25AB276
:102240007B6883F88E207B6893F98F207B6893F9F5
:1022500080309A4207DD7B6893F980207B6883F8A1
:102260008F2000E000BF0C37BD465DF8047B70474F
:1022700080B483B000AF7860002318460C37BD46A9
:102280005DF8047B7047000080B483B000AF7860D5
:102290007B68044ADA6500BF0C37BD465DF8047BF5
:1022A000704700BF7122000880B582B000AF78602F
:1022B00039607B689B6D3A689A420BD07B683A68BC
:1022C0009A657B68743339681846FFF70DFB7868A8
:1022D000FFF762FF00BF0837BD4680BD80B487B0FE
:1022E00000AFF860B96011461A460B46FB801346F2
:1022F000BB80FB681B88FB82FB8ABB82BB681A8899
:10230000BB8A1344BB82FA8ABB8A9A420BD9FA8AE7
:10231000BB889A4205D2BB88BB82BB8A013BBB8289
:1023200001E0FB88FB82FA8ABB889A4201D3002332
:102330001CE0BA8AFB889A4201D8002316E0FA8A88
:10234000FB889A4201D2FB88FB82BA8ABB889A42F8
:1023500001D9BB88BB82FB68FA8A1A80BA8AFB8AD9
:10236000D31ABB82BB68BA8A1A80012318461C376D
:10237000BD465DF8047B704790B587B002AFF8604A
:10238000084611461A4603467B810B463B8113469D
:10239000FB80FB68DB8F3A89D31A3B81FB68DC6AE0
:1023A000F8883A89798997F8203000930346F868CD
:1023B000A04700BF1437BD4690BD90B587B002AFAF
:1023C000F860084611461A4603467B810B463B815E
:1023D0001346FB80FB6893F88C30002B75D0FB888C
:1023E000002B72D0FB88012B1AD997F82030022BD2
:1023F00009D17A89FB88D31A9BB27B817B8901330F
:102400009BB27B810CE097F82030032B08D13A89EE
:10241000FB88D31A9BB23B813B8901339BB23B8142
:1024200097F8203003F0010387F8203097F8203028
:10243000002B1AD1FB68B3F84C203B899A423BD859
:10244000FB68B3F84E203B899A4237D9FB68B3F852
:102450004820FB68B3F84A30B91D07F10A00FFF7BE
:102460003DFF0346002B1AD12FE0FB68B3F848204C
:102470007B899A4224D8FB68B3F84A207B899A4228
:1024800020D9FB68B3F84C20FB68B3F84E30B91D77
:1024900007F10800FFF722FF0346002B14D0FB686A
:1024A0001B6B9C6879893A89F88897F820300093EB
:1024B0000346F868A04708E000BF06E000BF04E05C
:1024C00000BF02E000BF00E000BF1437BD4690BD72
:1024D00080B584B002AF78600B467B8013463B80AA
:1024E0007B68B3F84C303A889A421AD37B68B3F8C9
:1024F0004E303A889A4216D27B68B3F848307A88D0
:102500009A4212D37B68B3F84A307A889A420ED244
:102510003A8879880023009301237868FFF74DFFFC
:1025200006E000BF04E000BF02E000BF00E000BF23
:102530000837BD4680BD90B482B000AF044608465F
:1025400011461A462346FB800346BB800B467B8020
:1025500013463B807A88BB889A420DD23A88FB8822
:102560009A4201D9012314E07A883B889A4201D922
:1025700001230EE000230CE03A88FB889A4207D939
:102580007A883B889A4201D9012302E0002300E0C7
:10259000002318460837BD4690BC704780B584B00C
:1025A00000AFF860084611461A4603467B810B4689
:1025B0003B811346FB80FB68B3F84C00FB68B3F823
:1025C0004E103B8B3A89FFF7B6FF0346002B01D133
:1025D00000230AE0FB68B3F84800FB68B3F84A1030
:1025E000FB887A89FFF7A7FF034618461037BD46D8
:1025F00080BD80B588B000AFF860084611461A4625
:1026000003467B810B463B811346FB800023FB7412
:102610007A89FB889A4204D97A89FB88D31A7B830A
:1026200003E0FA887B89D31A7B833A893B8D9A42EF
:1026300004D93A893B8DD31A3B8303E03A8D3B8919
:10264000D31A3B833A8B7B8B9A4213D90123FB74B9
:102650007B8B3B823B8B7B833B8A3B837B893B82AF
:102660003B897B813B8A3B81FB883B823B8DFB80A6
:102670003B8A3B857A89FB889A420BD97B893B82CE
:10268000FB887B813B8AFB803B893B823B8D3B8186
:102690003B8A3B857B8B5B089BB2FB823A8D3B89F7
:1026A0009A4202D90123BB8202E04FF6FF73BB823C
:1026B0003B89BB83FB884FF6FF72934202D1FB88B4
:1026C000013BFB807B89FB8326E0FB7C002B06D152
:1026D000BA8BFB8B1946F868FFF7FAFE05E0FA8B18
:1026E000BB8B1946F868FFF7F3FEFA8A3B8BDBB227
:1026F0009BB2D31A9BB2FB82B7F91630002B08DAD3
:10270000BA8ABB8B1344BB83FA8A7B8B13449BB27C
:10271000FB82FB8B0133FB83FA8BFB889A42D4D973
:1027200000BF00BF2037BD4680BD80B489B000AF78
:10273000F860084611461A4603467B810B463B81EA
:102740001346FB803B89FB76FB7E03F00703FB7699
:1027500001233B763A7EFB7E02FA03F33B760023AD
:10276000BB7600237B76FB6893F89230012B01D86F
:102770003B7EBB76FB6893F89230012B01D03B7E09
:102780007B763B89FB82FB8A23F00703FB82FB6895
:102790001B681B7C9BB2FA8A12FB03F3FB82FB686B
:1027A0005B6BFB61FB8AFA691344FB617B89FA6905
:1027B0001344FB6197F82830002B17D1FB691A7876
:1027C000BB7E1343DAB2FB691A70FB691A787B7E11
:1027D0005340DAB2FB691A70FB690133FB61FB8875
:1027E000013BFB80FB88002BE8D138E0FB691A78BD
:1027F000BB7E1343DAB2FB691A70FB691A787B7EE1
:102800005340DAB2FB691A70FB7E0133FB76FB7E24
:1028100003F00703FB76FB88013BFB80FB7E002B6C
:1028200014D1FB685B8F1A46FB691344FB61FB689C
:1028300093F89230012B01D80123BB76FB6893F803
:102840009230012B08D001237B7605E0BB7E5B0034
:10285000BB767B7E5B007B76FB88002BC6D100BFFE
:102860002437BD465DF8047B704780B582B000AF69
:1028700078607B680022A3F850207B680022A3F8D0
:1028800054207B684FF6FF72A3F852207B684FF606
:10289000FF72A3F856207B681B6B5B6878689847CB
:1028A00000BF0837BD4680BD80B584B000AFF8607A
:1028B000B9603B601346FB71FB6800229A65FB68B8
:1028C0003A68DA62FB68BA685A63FB68FA7983F897
:1028D0003820FB68002283F83920FB68002283F847
:1028E0006D20FB68002283F89120FB68012283F8A9
:1028F0009220FB68012283F89320FB68BA691A636F
:10290000FB681B6B1B68F8689847F868FFF7ADFF1A
:10291000F868FFF7B9FCFB68002283F8702000BF5D
:102920001037BD4680BD80B485B000AF78607B684D
:102930001B68BB607B6893F83830FB81FB89DB0048
:10294000FB817B68FA899A87BB681B7CFB81FB89CA
:10295000DB00FB817B68FA895A877B6893F8393002
:10296000FB81FB89DB00FB817B68FA89DA877B6866
:1029700093F83830FB81FB897A6892F83920134448
:10298000BA68527C934208DDBB685B7C9AB27B6874
:1029900093F839309BB2D31AFB81FB89DB00FB81B2
:1029A0007B68DA8F7B68A3F840207B68B3F840200F
:1029B0007B68A3F842207B68B3F84220FB8913446C
:1029C0009AB27B68A3F84220BB689A8A7B68A3F816
:1029D0004420BB68DA8A7B68A3F8462000BF14371E
:1029E000BD465DF8047B704780B584B002AF786067
:1029F0007B68B3F850107B68B3F854207B68B3F859
:102A000052007B68B3F85630009303467868FFF7AE
:102A1000C5FD0346002B04D17B68002283F88C207F
:102A20003BE07B68012283F88C207B68B3F8482068
:102A30007B68B3F850309A4205D27B68B3F85020D7
:102A40007B68A3F848207B68B3F84A207B68B3F81A
:102A500052309A4205D97B68B3F852207B68A3F8BC
:102A60004A207B68B3F84C207B68B3F854309A4214
:102A700005D27B68B3F854207B68A3F84C207B68B0
:102A8000B3F84E207B68B3F856309A4205D97B687C
:102A9000B3F856207B68A3F84E2000BF0837BD4628
:102AA00080BD80B582B000AF78607868FFF73BFFEB
:102AB00000BF0837BD4680BD80B582B000AF7860EA
:102AC0007B680022A3F848207B68B3F844207B6829
:102AD000A3F84A207B68B3F840207B68A3F84C2019
:102AE0007B68B3F842207B68A3F84E207868FFF734
:102AF0007BFF00BF0837BD4680BD80B586B002AF02
:102B0000F860084611461A4603467B810B463B8116
:102B10001346FB80F8883A8979893B7E0093034607
:102B2000F868FFF729FC00BF1037BD4680BD80B5AF
:102B300084B000AFF8607B600B46FB721346BB723B
:102B4000FB7A282B06D0292B05D1BB7A184604F036
:102B50001BFB00E000BF012318461037BD4680BDB7
:102B600080B588B002AFF8607B600B46FB721346FD
:102B7000BB72FB7A143B0C2B51D801A252F823F004
:102B8000232C00081F2C00081F2C0008B52B000860
:102B9000E52B0008ED2B00081F2C00081F2C000857
:102BA0001F2C00081F2C00081F2C00081F2C0008D9
:102BB000232C00087B687B6110E01D4B1B785A1C9E
:102BC000D1B21B4A11701A467B691978194B995476
:102BD0007B6901337B61BB7A013BBB72BB7A002B03
:102BE000EBD11FE0124B00221A701BE0124B1B6846
:102BF0001B68002B07D10E4B1B781A460D49782015
:102C000001F09EFB0EE00C4B1868094B1B789BB241
:102C100064220092074A782102F06CFB02E0002354
:102C200001E000BF012318461837BD4680BD00BF34
:102C3000180600201C0600201406002080B483B073
:102C400000AF78607B68002283F8262000BF0C3735
:102C5000BD465DF8047B704780B483B000AF7860F8
:102C60000B46FB70FB78002B02D0FB780A2B02D1BD
:102C70004FF6FF7301E0FB789BB218460C37BD4658
:102C80005DF8047B704790B585B000AFF8600B46E7
:102C90007A60FB72FB681C69FA7A7B681721F86816
:102CA000A047034618461437BD4690BD80B582B094
:102CB00000AF78600B46FB70FB1C1A460121786858
:102CC000FFF7E1FF034618460837BD4680BD90B5C3
:102CD00083B000AF78607B681C6900230022182154
:102CE0007868A047034618460C37BD4690BD90B59E
:102CF00083B000AF78607B681C6900230022192133
:102D00007868A047034618460C37BD4690BD90B57D
:102D100083B000AF78600B46FB707B68DC68FA78A4
:102D2000002315217868A047034618460C37BD4696
:102D300090BD90B583B000AF78600B46FB707B68A8
:102D4000DC68FA78002316217868A0470346184605
:102D50000C37BD4690BD90B585B000AFF8600B460E
:102D60007A60FB72FB68DC68FA7A7B681721F86886
:102D7000A047034618461437BD4690BD90B583B0B2
:102D800000AF78607B68DC68002300221821786837
:102D9000A047034618460C37BD4690BD90B583B09A
:102DA00000AF78607B68DC68002300221921786816
:102DB000A047034618460C37BD4690BD90B585B078
:102DC00000AF786039603B681B78FB733B68013368
:102DD0003B60FB7BFE2B31D0FE2B3DDC192B3BDC1B
:102DE000182B23DA162B02DC152B03DA34E0172B11
:102DF0000ED031E03B681B78BB737B68DC68BA7B24
:102E0000F97B00237868A0473B6801333B6022E0F0
:102E10003B681B78BB7307F10E031A4601217868E3
:102E2000FFF799FF3B6801333B6014E07B68DC6887
:102E3000F97B002300227868A0470CE03B681B78F0
:102E4000BB73BB7B1A462921786800F036FA3B68D1
:102E500001333B6000BFB6E700BF1437BD4690BDED
:102E600090B585B000AFF8600B467A60FB72F868E9
:102E7000FFF72DFF4021F868FFF718FFFB681C697A
:102E8000FA7A7B681721F868A047F868FFF72FFFE8
:102E900000BF1437BD4690BD90B587B000AFF86055
:102EA0007B600B46FB721346BB72FB7A143B052B0F
:102EB0006ED801A252F823F04F2F0008D12E00083F
:102EC000FF2E00080B2F0008732F00087B2F00082F
:102ED000334B1B78002B02D0F868FFF708FFF86827
:102EE000FFF7F5FE0021F868FFF7E0FEBB7A194610
:102EF000F868FFF7DBFE2A4B01221A704AE0BB7A22
:102F00001946F868FFF7D2FE44E0254B1B78002BEA
:102F100002D0F868FFF7EBFE7B687B610AE07A6914
:102F20001821F868FFF79CFFBB7A183BBB727B69DE
:102F300018337B61BB7A182BF1D8BB7A7A691946B2
:102F4000F868FFF78DFF164B00221A7022E0FB682D
:102F500093F82430FF2B03D1FB68782283F82420D8
:102F6000FB681C69BA7AF97A7B68F868A04703465F
:102F700011E00B4B00221A700CE0094B1B78002B60
:102F800002D0F868FFF7B3FE054B00221A7001E08B
:102F9000002300E0012318461C37BD4690BD00BF4A
:102FA0003C06002080B586B000AFF8607B600B4621
:102FB000FB721346BB72FB7A0B3B042B00F28A8038
:102FC00001A252F823F000BFDD2F0008D530000821
:102FD000F72F00082930000849300008BB7A002B81
:102FE00004D14049F868FFF7E9FE75E03E49F8680A
:102FF000FFF7E4FE70E0BB7A002B0AD13B49F8688A
:10300000FFF7DCFEFB681B689A7CFB6883F82220D4
:1030100062E03749F868FFF7D1FEFB681B68DA7C8D
:10302000FB6883F8222057E0F868FFF7A7FE8121AC
:10303000F868FFF76CFEBB7A1946F868FFF779FE6F
:10304000F868FFF7ABFE47E0F868FFF797FE7B688C
:103050005B79FB75FB7DDB00FB75FB6893F8222039
:10306000FB7D1344FB754021F868FFF750FEFB7DA4
:103070001B09DBB243F01003DBB21946F868FFF717
:1030800046FEFB7D03F00F03DBB21946F868FFF73D
:1030900050FE7B689B7963F04F03DBB21946F868FA
:1030A000FFF747FE7B681B79BB757B681B683B613C
:1030B000BB7DDB00DBB23A691946F868FFF74BFECF
:1030C000BB7A013BBB72BB7A002BEBD1F868FFF7F0
:1030D00065FE01E0002300E0012318461837BD46D5
:1030E00080BD00BF6C0B0108740B01087C0B01084C
:1030F000840B010880B584B000AFF8607B600B469C
:10310000FB721346BB72BA7AF97A7B68F868FFF7EC
:1031100049FF0346002B01D0012314E0FB7A092B61
:1031200009D00A2B0CD1F86800F02AF80849F86891
:10313000FFF744FE06E00749F86800F00DF801E0EB
:10314000002300E0012318461037BD4680BD00BFB4
:10315000340B01088C0B010880B483B000AF786099
:1031600039607B683A681A607B681B689A7C7B6868
:1031700083F8222000BF0C37BD465DF8047B704702
:1031800090B583B000AF78607B685C690023002253
:1031900028217868A0477B68DC680023002214217E
:1031A0007868A04701224B21786800F086F87B6898
:1031B0001B681B791A462921786800F07EF80022E6
:1031C0004B21786800F079F87B681B681B791A46F8
:1031D0002921786800F071F801224B21786800F00D
:1031E0006CF87B681B685B791A462921786800F0C7
:1031F00064F800BF0C37BD4690BD90B585B000AFF8
:103200007860084611461A460346FB700B46BB70B1
:1032100013467B70FB787B73BB78BB737B783B7307
:103220003B6ABB607B689C6807F1080301220F21A1
:103230007868A047034618461437BD4690BD90B540
:1032400083B000AF78607B689C680023002209216E
:103250007868A04700BF0C37BD4690BD90B583B0DD
:1032600000AF78607B689C68002300220A217868A0
:10327000A04700BF0C37BD4690BD90B583B000AFEE
:1032800078600B46FB707B689C68FA7800230B2102
:103290007868A04700BF0C37BD4690BD90B583B09D
:1032A00000AF78607B689C6800230022102178685A
:1032B000A04700BF0C37BD4690BD90B583B000AFAE
:1032C00078600B46FB701346BB707B685C69BA780C
:1032D000F97800237868A04700BF0C37BD4690BD41
:1032E00080B485B000AFF8607B600B46FB7213467C
:1032F000BB72002318461437BD465DF8047B704747
:1033000080B483B000AF78607B6800221A607B686D
:10331000114A9A607B68104ADA607B680E4A1A612B
:103320007B680D4A5A617B68002283F823207B6802
:10333000002283F826207B6800229A617B68FF22A6
:1033400083F824207B68FF2283F8282000BF0C37F5
:10335000BD465DF8047B7047E132000880B584B05B
:1033600000AFF860B9607A603B60F868FFF7C8FFAB
:10337000FB68BA689A60FB687A68DA60FB683A684A
:103380001A61FB68BA695A61F868FFF758FF00BF15
:103390001037BD4680BD000080B584B000AFF86036
:1033A000B9601346FB71FB68BA681A60FB68FA796A
:1033B00083F80821FB681B68184600F08DFA9FED22
:1033C000071ADFED070A9FED070AF86800F04EFACA
:1033D000FB6818461037BD4680BD00BF000048425C
:1033E0000000C8420000484380B582B000AF78605A
:1033F0000121786800F02EF90021786800F036F895
:103400000021786800F072F80221786800F019F85D
:103410000021786800F00CF900BF0837BD4680BD78
:1034200080B582B000AF7860786800F027F9034675
:10343000342B0CBF01230023DBB218460837BD46EE
:1034400080BD80B584B002AF78600B46FB707B68AE
:1034500093F80801FB780093032302221A2100F05D
:1034600025FB00BF0837BD4680BD000080B584B095
:1034700002AF78600B46FB707B6893F80801FB781D
:103480000093022304221B2100F010FBFB78032B86
:103490001ED801A252F823F0A9340008B334000862
:1034A000BD340008C73400087B680C4AC3F8DC2030
:1034B0000FE07B680A4AC3F8DC200AE07B68094A0F
:1034C000C3F8DC2005E07B68074AC3F8DC2000E095
:1034D00000BF00BF0837BD4680BD00BF6F12034369
:1034E0006F1283426F1203426F12834180B584B022
:1034F00002AF78600B46FB707B6893F80801FB789D
:103500000093022304221C2100F0D0FAFB78032B45
:1035100022D801A252F823F02935000835350008D9
:10352000413500084D3500087B684FF08D42C3F8E7
:10353000E02012E07B684FF08C42C3F8E0200CE002
:103540007B684FF08B42C3F8E02006E07B684FF0C9
:103550008A42C3F8E02000E000BF00BF0837BD4644
:1035600080BD00BF80B586B002AFF860B9607A60F8
:103570003B60FB6893F80801FB6803F209134FF402
:103580007A7200920E223B2100F012FAFB6893F847
:1035900009311B021AB2FB6893F80A311BB21343BC
:1035A0001AB2BB681A80FB6893F80B311B021AB27F
:1035B000FB6893F80C311BB213431AB27B681A8074
:1035C000FB6893F80D311B021AB2FB6893F80E31B9
:1035D0001BB213431AB23B681A80FB6893F811318F
:1035E0001B021AB2FB6893F812311BB213431AB2D2
:1035F000BB691A80FB6893F813311B021AB2FB688F
:1036000093F814311BB213431AB2FB691A80FB689A
:1036100093F815311B021AB2FB6893F816311BB2EE
:1036200013431AB23B6A1A8000BF1037BD4680BDF3
:1036300080B582B000AF78600B46FB707B6893F872
:103640000801FB7806226B2100F0F0F900BF083773
:10365000BD4680BD80B584B002AF78600B46FB707C
:103660007B6893F80801FB780093032302226B2107
:1036700000F01CFA00BF0837BD4680BD80B584B09D
:1036800002AF78607B6893F808017B6803F2091346
:103690004FF47A720192009306230622752100F0FE
:1036A0002BF97B6893F8093118460837BD4680BD71
:1036B000B0B586B004AF78600B46FB707B6803F151
:1036C000E4007B6803F1E6047B6803F1E8057B68AE
:1036D000EA337A68EC327968EE3102910192009314
:1036E0002B46224601467868FFF73CFF7B68B3F91A
:1036F000E43007EE903AF8EEE76A7B6893ED387AAB
:10370000C6EE877A7B68C3ED3C7A7B68B3F9E63016
:1037100007EE903AF8EEE76A7B6893ED387AC6EEEA
:10372000877A7B68C3ED3D7A7B68B3F9E83007EEB2
:10373000903AF8EEE76A7B6893ED387AC6EE877ABE
:103740007B68C3ED3E7A7B68B3F9EA3007EE903AC6
:10375000F8EEE76A7B6893ED377AC6EE877A7B6886
:10376000C3ED3F7A7B68B3F9EC3007EE903AF8EEA0
:10377000E76A7B6893ED377AC6EE877A7B68C3ED9C
:10378000407A7B68B3F9EE3007EE903AF8EEE76ADC
:103790007B6893ED377AC6EE877A7B68C3ED417A12
:1037A000FB78002B5ED07B6803F170027B68D3ED61
:1037B0003C7AB0EE670A104600F04EFBF0EE407A1D
:1037C0007B68C3ED3C7A7B6803F194027B68D3EDA0
:1037D0003D7AB0EE670A104600F03EFBF0EE407A0C
:1037E0007B68C3ED3D7A7B6803F1B8027B68D3ED5B
:1037F0003E7AB0EE670A104600F02EFBF0EE407AFB
:103800007B68C3ED3E7A7B681A1D7B68D3ED3F7AF7
:10381000B0EE670A104600F01FFBF0EE407A7B68BE
:10382000C3ED3F7A7B6803F128027B68D3ED407AD1
:10383000B0EE670A104600F00FFBF0EE407A7B68AE
:10384000C3ED407A7B6803F14C027B68D3ED417A8B
:10385000B0EE670A104600F0FFFAF0EE407A7B689F
:10386000C3ED417A00BF0837BD46B0BD80B586B014
:1038700000AFF86087ED020AC7ED010A87ED001A74
:1038800000237B617B69022B21DC7A691346DB0014
:1038900013449B00FA6813440433D7ED010A97EDF3
:1038A000020A184600F0ACF97A691346DB001344AB
:1038B0009B007033FA681344D7ED000A97ED020AB3
:1038C000184600F09DF97B6901337B61DAE700BFA0
:1038D0001837BD4680BD000080B483B000AF78606B
:1038E000044A7B68136000BF0C37BD465DF8047B5B
:1038F000704700BF4006002090B585B000AF044679
:10390000084611461A462346FB710346BB710B4617
:103910007B7113463B71BB8C07F10D02B979F879C5
:1039200000F02DF80346FB73FB7B002B14BF012333
:103930000023DBB2002B1DD03B79012202FA03F3F6
:103940005A1E79793B79CB1A013302FA03F3BB7320
:103950007A7BBB7B1340DBB27B737B7B19467A7926
:103960003B79D31A013341FA03F3DBB27B737A7BE1
:103970003B6A1A70FB7B18461437BD4690BD80B574
:1039800084B002AF3A601A460346FB710B46BB7126
:103990001346BB80B979F879BB8800933B68012254
:1039A00000F006F8034618460837BD4680BD000003
:1039B00080B586B002AF3B600346FB710B46BB711E
:1039C00013467B713B8B002B01D03B8B01E04FF406
:1039D0007A73FB81144B1868FB799BB25B0099B238
:1039E000FB89BA1D0093012301F084FC0E4B18687B
:1039F000FB799BB25B0099B27B799AB2FB89009309
:103A000013463A6801F074FD0346002B0CBF0123F6
:103A10000023DBB2002B01D07B7900E0FF231846A6
:103A20001037BD4680BD00BF4006002090B585B070
:103A300000AF0446084611461A462346FB7103466A
:103A4000BB710B467B7113463B71174B1B8807F10B
:103A50000F02B979F879FFF792FF3B79002B0AD072
:103A60007B79012202FA03F35AB2FB7B5BB2134368
:103A70005BB2DBB20BE07B79012202FA03F35BB2AB
:103A8000DB435AB2FB7B5BB213405BB2DBB2FB732E
:103A9000FA7BB979FB79184600F05FF803461846BF
:103AA0001437BD4690BD00BF0000002090B585B022
:103AB00000AF0446084611461A462346FB710346EA
:103AC000BB710B467B7113463B7107F10E02B9794E
:103AD000F8796423FFF753FF0346002B14BF01233B
:103AE0000023DBB2002B33D03B79012202FA03F32F
:103AF0005A1E79793B79CB1A013302FA03F3FB732F
:103B000097F8202079793B79CB1A013302FA03F335
:103B100087F8203097F82020FB7B134087F820306F
:103B200097F90F30DB435AB2BB7B5BB213405BB2F9
:103B3000DBB2BB73BA7B97F820301343DBB2BB73A5
:103B4000BA7BB979FB79184600F007F8034600E024
:103B5000002318461437BD4690BD80B582B000AF33
:103B60000346FB710B46BB7113467B717B1DB97914
:103B7000F879012200F006F8034618460837BD46DA
:103B800080BD000080B586B002AF3B600346FB718C
:103B90000B46BB7113467B717B790133184608F0E5
:103BA00055F90346FB60FB68BA791A70FB6801336C
:103BB0007A793968184608F059F9104B1868FB797A
:103BC0009BB25B0099B27B799BB201339BB24FF4FD
:103BD0007A720092FA6801F08DFB0346FB72F86876
:103BE00008F03CF9FB7A002B0CBF01230023DBB269
:103BF0009BB218461037BD4680BD00BF400600206E
:103C000080B584B000AFF86087ED020AC7ED010A05
:103C100000219FED061AD7ED010A97ED020AF86818
:103C200000F006F800BF1037BD4680BDF304353FF5
:103C300080B586B000AF786187ED040AC7ED030A4E
:103C400087ED021A0B46FB71FB79194697ED021AB4
:103C5000D7ED030A97ED040A786900F015F87B693F
:103C60004FF000029A617B699A697B695A617B69AE
:103C70004FF000021A627B691A6A7B69DA6100BF41
:103C80001837BD4680BD000080B58CB000AF7861AC
:103C900087ED040AC7ED030A87ED021A0B46FB7194
:103CA000D7ED047A9FED6A7A27EE877AD7ED037A0B
:103CB00067EE277A9FED677A67EE877AC7ED0B7A12
:103CC00097ED0B0A00F012F987ED0A0A97ED0B0A3F
:103CD00000F0B6F987ED090AD7ED027A37EEA77A38
:103CE000D7ED0A6AC6EE877AC7ED087AFB79022B10
:103CF0004FD0022B6EDC002B02D0012B2AD069E0C2
:103D0000B7EE007AD7ED097A77EE677A7B69C3ED73
:103D1000017A7B69D3ED017AB6EE007A67EE877A95
:103D20007B69C3ED007A7B691A687B699A60D7ED7D
:103D3000097AB8EE007A67EE877A7B69C3ED037A79
:103D4000B7EE007AD7ED087A77EE677A7B69C3ED34
:103D5000047A3FE07B694FF07E521A60D7ED097A12
:103D6000B8EE007A67EE877A7B69C3ED017A7B69EA
:103D70004FF07E529A607B695A687B69DA60B7EED1
:103D8000007AD7ED087A77EE677A7B69C3ED047A1B
:103D900020E07B693A6A1A607B694FF000025A6042
:103DA000D7ED087AF1EE677A7B69C3ED027AD7ED39
:103DB000097AB8EE007A67EE877A7B69C3ED037AF9
:103DC000B7EE007AD7ED087A77EE677A7B69C3EDB4
:103DD000047A00BFD7ED087AB7EE007A77EE877ADB
:103DE000C7ED077A7B69D3ED006A97ED077AC6EED7
:103DF000877A7B69C3ED007A7B69D3ED016A97ED21
:103E0000077AC6EE877A7B69C3ED017A7B69D3EDC9
:103E1000026A97ED077AC6EE877A7B69C3ED027A6C
:103E20007B69D3ED036A97ED077AC6EE877A7B69E3
:103E3000C3ED037A7B69D3ED046A97ED077AC6EE8A
:103E4000877A7B69C3ED047A00BF3037BD4680BDF9
:103E5000DB0FC940BD37863580B485B000AF7860D0
:103E600087ED000A7B6893ED007AD7ED007A27EEA4
:103E7000277A7B68D3ED057A77EE277AC7ED037A48
:103E80007B6893ED017AD7ED007A27EE277A7B687D
:103E9000D3ED036AD7ED037A66EEA77A37EE677A39
:103EA0007B68D3ED067A77EE277A7B68C3ED057AD7
:103EB0007B6893ED027AD7ED007A27EE277A7B684C
:103EC000D3ED046AD7ED037A66EEA77A77EE677AC8
:103ED0007B68C3ED067AFB6807EE903AB0EE670A9E
:103EE0001437BD465DF8047B7047000080B485B090
:103EF00000AF87ED010AD7ED017AFDEEE77A17EE04
:103F0000903AFB60FB6813F1200F02DBFB68202B6B
:103F10000ADDDFED427A79E0D7ED017A9FED407A54
:103F200077EEC77AC7ED017AD7ED017A9FED3D7A3A
:103F3000F4EEC77AF1EE10FAEEDC07E0D7ED017A85
:103F40009FED377A77EE877AC7ED017AD7ED017A60
:103F50009FED357AF4EEC77AF1EE10FAEED4D7ED94
:103F6000017A9FED327AF4EEC77AF1EE10FA0CDDA9
:103F7000D7ED017A9FED2D7A77EEC77A9FED2B7AF8
:103F800077EE677AC7ED017A14E0D7ED017A9FEDFD
:103F9000287AF4EEC77AF1EE10FA0BD5D7ED017A54
:103FA0009FED227A77EE877A9FED217A77EE677A16
:103FB000C7ED017AD7ED017A67EEA77AC7ED027AED
:103FC00097ED017AD7ED027A27EE277AD7ED027ABC
:103FD000DFED126A67EEA67ADFED166A77EEE66A23
:103FE000D7ED027A66EEA77ADFED136A77EEA66A5E
:103FF000D7ED027A66EEA77ADFED106A77EEE67A01
:1040000027EE277AD7ED017A77EE277AB0EE670AA6
:104010001437BD465DF8047B704700BF0000000008
:10402000DB0FC940DB0F4940DB0F49C0DB0FC93F45
:10403000DB0FC9BF92E741399730083C15A82A3EEB
:1040400080B582B000AF87ED010AD7ED017A9FED10
:10405000077A77EE877AB0EE670AFFF747FFF0EE50
:10406000407AB0EE670A0837BD4680BDDB0FC93F16
:1040700080B586B000AF78607B68B3F5617F1CD9EE
:1040800000237B6106E04FF46170FFF7F1FF7B696D
:1040900001337B617B681B4AA2FB03235A0A7B69BD
:1040A0009A42F0D87A68174BA3FB02135B0A4FF4CD
:1040B000617101FB03F3D31A7B60134B9B687B6137
:1040C0007B687B693B613B69002B0BDB0E4B9B687C
:1040D000FB60FA687B699A420FDAFA683B699A4298
:1040E000F4DA0AE0084B9B68FB60FA687B699A4245
:1040F000F8DDFA683B699A42F4DC00BF1837BD4628
:1041000080BD00BFC5B3A29110E000E080B586B0CD
:1041100000AF4FF400637B600123BB6002233B616F
:104120003B1D1946034800F0EBFD00BF1837BD46A4
:1041300080BD00BF0004024080B586B000AF4FF4E0
:1041400000637B600023BB6002233B613B1D19467B
:10415000034800F0D5FD00BF1837BD4680BD00BF45
:104160000004024080B586B000AF4FF480637B60EE
:104170000123BB6002233B613B1D1946034800F04D
:10418000BFFD00BF1837BD4680BD00BF0004024020
:1041900080B500AFFFF7E6FFFFF7B8FF01224FF44D
:1041A0008061054800F048FF01224FF40061024899
:1041B00000F042FF00BF80BD0004024080B500AFA8
:1041C000FFF7A4FF01224FF400610E4800F034FF16
:1041D00001224FF480610B4800F02EFF0420FFF70E
:1041E00047FF00224FF40061064800F025FF04203D
:1041F000FFF73EFF00224FF48061024800F01CFFF1
:1042000000BF80BD0004024080B500AFFFF77EFF15
:1042100000224FF480610E4800F00EFF00224FF4A0
:1042200000610B4800F008FF0420FFF721FF012286
:104230004FF48061064800F0FFFE01224FF4006158
:10424000034800F0F9FE0420FFF712FF00BF80BD15
:104250000004024080B582B000AF0023FB71FFF77D
:104260006BFF01224FF40061164800F0E5FE0120CB
:10427000FFF7FEFE01224FF48061124800F0DCFEE1
:104280000120FFF7F5FE09E0FB790133FB71FB79B3
:10429000FA2B03D9FFF7B8FF01230EE04FF40061BA
:1042A000084800F0B1FE0346002BEDD100224FF488
:1042B0008061044800F0C0FE002318460837BD4660
:1042C00080BD00BF0004024080B584B000AF03464B
:1042D000FB71FFF71BFF00224FF48061174800F0CD
:1042E000ABFE0023FB7320E0FB79DB09DBB21A464F
:1042F0004FF40061114800F09FFEFB795B00FB71F9
:104300000520FFF7B5FE01224FF480610B4800F055
:1043100093FE0520FFF7ACFE00224FF480610748B2
:1043200000F08AFEFB7B0133FB73FB7B072BDBD9A1
:1043300000BF00BF1037BD4680BD00BF0004024073
:1043400080B584B000AF03463960FB711346BB7182
:10435000FFF734FFFB791846FFF7B6FFFFF77AFF48
:104360000023FB600BE0FB683A6813441B78184697
:10437000FFF7AAFFFFF76EFFFB680133FB60BB7915
:10438000FA689A42EFDBFFF73FFF00BF1037BD46E8
:1043900080BD000080B500AF044A0021044802F04F
:1043A00061FE0346034A136000BF80BDA40B0108F1
:1043B000B94300084406002080B582B000AF7860A1
:1043C00006F06AFA00BF0837BD4680BD80B485B0EC
:1043D00000AF0023FB60174B1B6B164A43F08003B2
:1043E0001363144B1B6B03F08003FB60FB6800231B
:1043F000BB60104B1B6B0F4A43F0020313630D4B62
:104400001B6B03F00203BB60BB6800237B60094B9E
:104410001B6B084A43F001031363064B1B6B03F04D
:1044200001037B607B6800BF1437BD465DF8047BE9
:10443000704700BF0038024080B500AF124B134AEE
:104440001A60114B124A5A600F4B00229A600E4BB1
:104450000022DA600C4B4FF480421A610A4B0022B2
:104460005A61094B00229A61074B0022DA61064B20
:1044700000221A62044800F0F9FD0346002B01D027
:1044800000F054F900BF80BD4806002000540040F1
:10449000801A060080B500AF124B134A1A60114B08
:1044A000124A5A600F4B00229A600E4B0022DA60CB
:1044B0000C4B4FF480421A610A4B00225A61094B9F
:1044C00000229A61074B0022DA61064B00221A6231
:1044D000044800F0CBFD0346002B01D000F026F984
:1044E00000BF80BD9C06002000580040801A0600D6
:1044F00080B58CB000AF786007F11C0300221A6011
:104500005A609A60DA601A617B681B683A4A934283
:104510002CD10023BB61394B1B6B384A43F002039B
:104520001363364B1B6B03F00203BB61BB69C023F3
:10453000FB6112233B6200237B620323BB620423E3
:10454000FB6207F11C0319462D4800F0D9FB00233C
:104550007B612A4B1B6C294A43F400131364274BDD
:104560001B6C03F400137B617B6941E07B681B6873
:10457000244A93423CD100233B61204B1B6B1F4AD2
:1045800043F0020313631D4B1B6B03F002033B61FB
:104590003B694FF48063FB6112233B6200237B6223
:1045A0000323BB620423FB6207F11C031946144872
:1045B00000F0A6FB0823FB6112233B6200237B6211
:1045C0000323BB620923FB6207F11C0319460C4855
:1045D00000F096FB0023FB60084B1B6C074A43F47A
:1045E00080031364054B1B6C03F48003FB60FB68C2
:1045F00000BF3037BD4680BD005400400038024047
:10460000000402400058004080B500AF00F054FAAA
:1046100002F04CF900F00EF8FFF7D8FEFFF70CFFA0
:10462000FFF738FF02F0D4FCFFF7B4FE02F0F4FC11
:10463000FEE7000080B594B000AF07F12003302200
:104640000021184607F03AFC07F10C0300221A601B
:104650005A609A60DA601A610023BB60284B1B6CB9
:10466000274A43F080531364254B1B6C03F080539F
:10467000BB60BB6800237B60224B1B6823F4404374
:10468000204A43F4004313601E4B1B6803F440436D
:104690007B607B6801233B624FF480337B620223A3
:1046A000BB634FF48003FB6319233B64A8237B6443
:1046B0000223BB640423FB6407F12003184601F0C6
:1046C0006BFC0346002B01D000F030F80F23FB6099
:1046D00002233B6100237B614FF48053BB610023C5
:1046E000FB6107F10C030221184601F0CDFE0346E1
:1046F000002B01D000F01AF800BF5037BD4680BD36
:10470000003802400070004080B582B000AF786091
:104710007B681B68044A934201D100F0EFF900BFA7
:104720000837BD4680BD00BF0000014080B400AF27
:1047300072B600BFFEE7000080B582B000AF002374
:104740007B60124B5B6C114A43F4804353640F4B04
:104750005B6C03F480437B607B6800233B600B4B06
:104760001B6C0A4A43F080531364084B1B6C03F024
:1047700080533B603B6800220F216FF0010000F086
:1047800095FA00BF0837BD4680BD00BF0038024023
:1047900080B58CB000AF78600023BB6200237B62E1
:1047A0000023BB602E4B5B6C2D4A43F00103536426
:1047B0002B4B5B6C03F00103BB60BB6807F10C0281
:1047C00007F110031146184602F03EF802F028F8EF
:1047D000B862BB6A234AA2FB03239B0C013B7B62AA
:1047E000214B224A1A60204B40F2E732DA601E4A1F
:1047F0007B6A53601C4B00221A611B4B00229A609B
:10480000194B00229A61184802F01EF9034687F8F6
:104810002F3097F82F30002B1BD1134802F06EF980
:10482000034687F82F3097F82F30002B11D119202D
:1048300000F058FA7B680F2B08D8002279681920FD
:1048400000F034FA0A4A7B68136002E0012387F81B
:104850002F3097F82F3018463037BD4680BD00BF47
:104860000038024083DE1B43F006002000000140B8
:104870000800002080B400AFFEE780B400AFFEE780
:1048800080B400AFFEE780B400AFFEE780B400AFB5
:10489000FEE780B400AF00BFBD465DF8047B704703
:1048A00080B500AF024802F08BF900BF80BD00BFA9
:1048B000F006002080B400AF01231846BD465DF825
:1048C000047B704780B582B000AF7860396007F034
:1048D00099F9034616221A604FF0FF33184608373D
:1048E000BD4680BD80B582B000AF78604FF0FF312B
:1048F0007868FFF7E7FFFEE780B586B000AFF860A5
:10490000B9607A6000237B610AE0AFF30080014662
:10491000BB685A1CBA60CAB21A707B6901337B61EA
:104920007A697B689A42F0DB7B6818461837BD4687
:1049300080BD80B586B000AFF860B9607A600023B2
:104940007B6109E0BB685A1CBA601B781846AFF35C
:1049500000807B6901337B617A697B689A42F1DB75
:104960007B6818461837BD4680BD80B483B000AF61
:1049700078604FF0FF3318460C37BD465DF8047B76
:10498000704780B483B000AF786039603B684FF403
:1049900000525A60002318460C37BD465DF8047B70
:1049A000704780B483B000AF7860012318460C379D
:1049B000BD465DF8047B704780B485B000AFF860F9
:1049C000B9607A60002318461437BD465DF8047B51
:1049D0007047000080B586B000AF7860144A154B70
:1049E000D31A7B617B693B61134B1B68002B02D19F
:1049F000114B124A1A60104B1A687B6813443A69CB
:104A00009A4207D207F0FEF803460C221A604FF0D4
:104A1000FF3309E0084B1B68FB60074B1A687B6893
:104A20001344054A1360FB6818461837BD4680BD1D
:104A3000000001200004000038070020205300205F
:104A400080B400AF064BD3F88830054A43F47003B6
:104A5000C2F8883000BFBD465DF8047B704700BFD8
:104A600000ED00E0DFF834D00D480E490E4A002377
:104A700002E0D458C4500433C4188C42F9D30B4A12
:104A80000B4C002301E013600432A242FBD3FFF77A
:104A9000D7FF07F0B3F9FFF7B7FD7047000001201B
:104AA00000000020EC010020B4120108EC010020FD
:104AB00020530020FEE7000080B500AF0E4B1B68BE
:104AC0000D4A43F4007313600B4B1B680A4A43F40E
:104AD00080631360084B1B68074A43F480731360BC
:104AE000032000F0D8F80F20FFF752FEFFF724FE56
:104AF0000023184680BD00BF003C024080B400AFD8
:104B0000064B1B781A46064B1B681344044A136075
:104B100000BFBD465DF8047B704700BF0C0000205D
:104B20003C07002080B400AF034B1B681846BD460D
:104B30005DF8047B704700BF3C07002080B485B05F
:104B400000AF78607B6803F00703FB600C4BDB6809
:104B5000BB60BA684FF6FF031340BB60FB681A02E4
:104B6000BB68134343F0BF6343F40033BB60044AA4
:104B7000BB68D36000BF1437BD465DF8047B704747
:104B800000ED00E080B400AF044BDB681B0A03F0CB
:104B900007031846BD465DF8047B704700ED00E052
:104BA00080B483B000AF0346FB7197F90730002B48
:104BB0000BDBFB7903F01F02074997F907305B090C
:104BC000012000FA02F241F8232000BF0C37BD4655
:104BD0005DF8047B704700BF00E100E080B483B063
:104BE00000AF03463960FB7197F90730002B0ADBF1
:104BF0003B68DAB20C4997F907301201D2B20B4484
:104C000083F800230AE03B68DAB20849FB7903F035
:104C10000F03043B1201D2B20B441A7600BF0C37CB
:104C2000BD465DF8047B704700E100E000ED00E068
:104C300080B489B000AFF860B9607A60FB6803F0B7
:104C40000703FB61FB69C3F10703042B28BF04239F
:104C5000BB61FB690433062B02D9FB69033B00E00F
:104C600000237B614FF0FF32BB6902FA03F3DA43A2
:104C7000BB681A407B699A404FF0FF317B6901FAAB
:104C800003F3D9437B680B40134318462437BD46D2
:104C90005DF8047B704780B582B000AF78607868BB
:104CA000FFF74CFF00BF0837BD4680BD80B586B01A
:104CB00000AF0346B9607A60FB7300237B61FFF7A6
:104CC00061FF78617A68B9687869FFF7B1FF0246D9
:104CD00097F90F3011461846FFF780FF00BF1837CD
:104CE000BD4680BD80B582B000AF0346FB7197F929
:104CF00007301846FFF754FF00BF0837BD4680BD98
:104D000080B489B000AF7860396000237B610023F4
:104D10003B610023BB610023FB6159E10122FB6978
:104D200002FA03F37B613B681B687A6913403B61BD
:104D30003A697B699A4240F048813B685B6803F0BE
:104D40000303012B05D03B685B6803F00303022BD0
:104D500030D17B689B68BB61FB695B00032202FA70
:104D600003F3DB43BA691340BB613B68DA68FB6954
:104D70005B0002FA03F3BA691343BB617B68BA694B
:104D80009A607B685B68BB610122FB6902FA03F3EE
:104D9000DB43BA691340BB613B685B681B0903F0E6
:104DA0000102FB6902FA03F3BA691343BB617B6832
:104DB000BA695A603B685B6803F00303032B17D0A2
:104DC0007B68DB68BB61FB695B00032202FA03F3CB
:104DD000DB43BA691340BB613B689A68FB695B00BF
:104DE00002FA03F3BA691343BB617B68BA69DA60FC
:104DF0003B685B6803F00303022B23D1FB69DA08ED
:104E00007B68083253F82230BB61FB6903F007036B
:104E10009B000F2202FA03F3DB43BA691340BB6124
:104E20003B681A69FB6903F007039B0002FA03F36E
:104E3000BA691343BB61FB69DA087B680832B96958
:104E400043F822107B681B68BB61FB695B0003228F
:104E500002FA03F3DB43BA691340BB613B685B684A
:104E600003F00302FB695B0002FA03F3BA69134320
:104E7000BB617B68BA691A603B685B6803F44033C6
:104E8000002B00F0A2800023FB60574B5B6C564A5E
:104E900043F480435364544B5B6C03F48043FB60E6
:104EA000FB68524AFB699B08023352F82330BB610E
:104EB000FB6903F003039B000F2202FA03F3DB43B9
:104EC000BA691340BB617B68494A934219D07B6839
:104ED000484A934213D07B68474A93420DD07B687F
:104EE000464A934207D07B68454A934201D1042346
:104EF00008E0072306E0032304E0022302E0012385
:104F000000E00023FA6902F0030292009340BA69BC
:104F10001343BB613549FB699B080233BA6941F809
:104F20002320384B9B68BB613B69DB43BA69134064
:104F3000BB613B685B6803F48013002B03D0BA6944
:104F40003B691343BB612F4ABB6993602D4BDB6800
:104F5000BB613B69DB43BA691340BB613B685B687B
:104F600003F40013002B03D0BA693B691343BB6100
:104F7000244ABB69D360234B5B68BB613B69DB435D
:104F8000BA691340BB613B685B6803F40033002BD4
:104F900003D0BA693B691343BB611A4ABB695360CA
:104FA000184B1B68BB613B69DB43BA691340BB61AB
:104FB0003B685B6803F48033002B03D0BA693B691C
:104FC0001343BB610F4ABB691360FB690133FB618B
:104FD000FB690F2B7FF6A2AE00BF00BF2437BD4692
:104FE0005DF8047B704700BF003802400038014084
:104FF000000002400004024000080240000C024091
:1050000000100240003C014080B485B000AF7860E1
:105010000B467B807B681A697B881340002B02D08B
:105020000123FB7301E00023FB73FB7B184614375D
:10503000BD465DF8047B704780B483B000AF7860F4
:105040000B467B8013467B707B78002B03D07A88DD
:105050007B689A6103E07B881A047B689A6100BFD1
:105060000C37BD465DF8047B7047000080B584B006
:1050700000AF78607B68002B01D101232BE17B68B6
:1050800093F83D30DBB2002B06D17B68002283F819
:105090003C207868FFF72CFA7B68242283F83D20B7
:1050A0007B681B681A687B681B6822F001021A6023
:1050B0007B681B681A687B681B6842F400421A60B0
:1050C0007B681B681A687B681B6822F400421A60C0
:1050D00001F092FBF8607B685B68814A934207D8D5
:1050E000FB68804A934294BF01230023DBB206E0B1
:1050F000FB687D4A934294BF01230023DBB2002B5F
:1051000001D00123E7E0FB68784AA2FB03239B0C54
:10511000BB607B681B685B6823F03F017B681B6892
:10512000BA680A435A607B681B681B6A23F03F0118
:105130007B685B686A4A934202D8BB68013309E026
:10514000BB684FF4967202FB03F3694AA2FB032388
:105150009B0901337A6812680B4313627B681B68F2
:10516000DB6923F44F4222F0FF027B685B685C49F5
:105170008B4219D8FB68591E7B685B685B00B1FBEA
:10518000F3F3591C40F6FC730B40002B0AD0FB686C
:10519000591E7B685B685B00B1FBF3F30133C3F31B
:1051A0000B0351E004234FE07B689B68002B11D177
:1051B000FB68581E7B6859680B465B000B44B0FBCC
:1051C000F3F30133C3F30B03002B0CBF01230023C4
:1051D000DBB212E0FB68581E7B6859680B469B00E7
:1051E0000B4499000B44B0FBF3F30133C3F30B03FF
:1051F000002B0CBF01230023DBB2002B01D00123C5
:1052000022E07B689B68002B0ED1FB68581E7B68F0
:1052100059680B465B000B44B0FBF3F30133C3F357
:105220000B0343F400430FE0FB68581E7B6859688A
:105230000B469B000B4499000B44B0FBF3F3013386
:10524000C3F30B0343F44043796809681343CB610C
:105250007B681B681B6823F0C0017B68DA697B6888
:105260001B6A1A437B681B680A431A607B681B68C9
:105270009B6823F4034323F0FF037A6811697A687B
:10528000D26811437A6812680B4393607B681B688D
:10529000DB6823F0FF017B685A697B689B691A43CE
:1052A0007B681B680A43DA607B681B681A687B6846
:1052B0001B6842F001021A607B6800221A647B6856
:1052C000202283F83D207B6800221A637B6800223D
:1052D00083F83E20002318461037BD4680BD00BF2E
:1052E000A08601007F841E00FF083D0083DE1B4373
:1052F000D34D621080B588B002AFF8607A601A466C
:105300000B467B8113463B81FFF70CFC7861FB6801
:1053100093F83D30DBB2202B40F0E0807B690093B6
:10532000192301227049F86800F058FC0346002B4D
:1053300001D00223D3E0FB6893F83C30012B01D16C
:105340000223CCE0FB68012283F83C20FB681B6849
:105350001B6803F00103012B07D0FB681B681A6868
:10536000FB681B6842F001021A60FB681B681A6840
:10537000FB681B6822F400621A60FB68212283F834
:105380003D20FB68102283F83E20FB6800221A644F
:10539000FB687A685A62FB683A895A85FB685B8DBC
:1053A0009AB2FB681A85FB68504ADA6279897B6990
:1053B0003A6AF86800F0C2FA0346002B01D00123D4
:1053C0008DE000233B61FB681B685B693B61FB6808
:1053D0001B689B693B613B6966E07A69396AF868DA
:1053E00000F0D2FC0346002B0DD0FB681B6C042B95
:1053F00007D1FB681B681A68FB681B6842F40072DF
:105400001A6001236BE0FB685B6A1A78FB681B6813
:105410001A61FB685B6A5A1CFB685A62FB685B8D09
:105420009BB2013B9AB2FB685A85FB681B8D013B1E
:105430009AB2FB681A85FB681B685B6903F004037A
:10544000042B1BD1FB681B8D002B17D0FB685B6AFC
:105450001A78FB681B681A61FB685B6A5A1CFB6858
:105460005A62FB685B8D9BB2013B9AB2FB685A851E
:10547000FB681B8D013B9AB2FB681A857A69396A11
:10548000F86800F0C2FC0346002B0DD0FB681B6CD3
:10549000042B07D1FB681B681A68FB681B6842F481
:1054A00000721A6001231AE0FB681B8D002B94D157
:1054B000FB681B681A68FB681B6842F400721A607C
:1054C000FB68202283F83D20FB68002283F83E2001
:1054D000FB68002283F83C20002300E002231846EA
:1054E0001837BD4680BD00BF020010000000FFFF5E
:1054F00080B58CB002AFF8607A601A460B467B81AB
:1055000013463B81FFF70EFB7862FB6893F83D3052
:10551000DBB2202B40F00B827B6A0093192301221F
:105520007C49F86800F05AFB0346002B01D00223A7
:10553000FEE1FB6893F83C30012B01D10223F7E137
:10554000FB68012283F83C20FB681B681B6803F0A2
:105550000103012B07D0FB681B681A68FB681B68F6
:1055600042F001021A60FB681B681A68FB681B683E
:1055700022F400621A60FB68222283F83D20FB6857
:10558000102283F83E20FB6800221A64FB687A68C8
:105590005A62FB683A895A85FB685B8D9AB2FB6850
:1055A0001A85FB685C4ADA6279897B6A3A6BF8682B
:1055B00000F046FA0346002B01D00123B8E1FB6856
:1055C0001B8D002B13D100233B62FB681B685B69BA
:1055D0003B62FB681B689B693B623B6AFB681B681C
:1055E0001A68FB681B6842F400721A608CE1FB6861
:1055F0001B8D012B1BD1FB681B681A68FB681B689D
:1056000022F480621A600023FB61FB681B685B69FF
:10561000FB61FB681B689B69FB61FB69FB681B689E
:105620001A68FB681B6842F400721A606CE1FB6840
:105630001B8D022B1BD1FB681B681A68FB681B685B
:1056400022F480621A60FB681B681A68FB681B689A
:1056500042F400621A600023BB61FB681B685B694F
:10566000BB61FB681B689B69BB61BB694CE1FB6864
:105670001B681A68FB681B6842F480621A6000238A
:105680007B61FB681B685B697B61FB681B689B69CE
:105690007B617B6938E1FB681B8D032B00F2F18095
:1056A000FB681B8D012B23D17A6A396BF86800F0F7
:1056B000EDFB0346002B01D0012339E1FB681B6899
:1056C0001A69FB685B6AD2B21A70FB685B6A5A1C83
:1056D000FB685A62FB681B8D013B9AB2FB681A8516
:1056E000FB685B8D9BB2013B9AB2FB685A850BE16C
:1056F000FB681B8D022B4ED17B6A00933B6B002213
:105700000649F86800F06AFA0346002B08D0012326
:105710000EE100BF020010000000FFFF04000100C6
:10572000FB681B681A68FB681B6842F400721A6009
:10573000FB681B681A69FB685B6AD2B21A70FB6867
:105740005B6A5A1CFB685A62FB681B8D013B9AB26C
:10575000FB681A85FB685B8D9BB2013B9AB2FB68C4
:105760005A85FB681B681A69FB685B6AD2B21A70BB
:10577000FB685B6A5A1CFB685A62FB681B8D013B25
:105780009AB2FB681A85FB685B8D9BB2013B9AB2AB
:10579000FB685A85B8E07B6A00933B6B0022664940
:1057A000F86800F01BFA0346002B01D00123BFE08C
:1057B000FB681B681A68FB681B6822F480621A6029
:1057C000FB681B681A69FB685B6AD2B21A70FB68D7
:1057D0005B6A5A1CFB685A62FB681B8D013B9AB2DC
:1057E000FB681A85FB685B8D9BB2013B9AB2FB6834
:1057F0005A857B6A00933B6B00224F49F86800F0A2
:10580000EDF90346002B01D0012391E0FB681B68F2
:105810001A68FB681B6842F400721A60FB681B6818
:105820001A69FB685B6AD2B21A70FB685B6A5A1C21
:10583000FB685A62FB681B8D013B9AB2FB681A85B4
:10584000FB685B8D9BB2013B9AB2FB685A85FB6893
:105850001B681A69FB685B6AD2B21A70FB685B6AE4
:105860005A1CFB685A62FB681B8D013B9AB2FB68AD
:105870001A85FB685B8D9BB2013B9AB2FB685A8527
:1058800042E07A6A396BF86800F000FB0346002BAF
:1058900001D001234CE0FB681B681A69FB685B6A56
:1058A000D2B21A70FB685B6A5A1CFB685A62FB68CA
:1058B0001B8D013B9AB2FB681A85FB685B8D9BB21E
:1058C000013B9AB2FB685A85FB681B685B6903F071
:1058D0000403042B18D1FB681B681A69FB685B6A18
:1058E000D2B21A70FB685B6A5A1CFB685A62FB688A
:1058F0001B8D013B9AB2FB681A85FB685B8D9BB2DE
:10590000013B9AB2FB685A85FB681B8D002B7FF424
:10591000C2AEFB68202283F83D20FB68002283F89A
:105920003E20FB68002283F83C20002300E0022395
:1059300018462837BD4680BD0400010080B588B0F8
:1059400002AFF8607A603B600B467B81FB68DB6AE4
:105950007B617B69082B06D07B69012B03D07B69B7
:1059600013F5803F08D1FB681B681A68FB681B6849
:1059700042F480721A600BE0FB681B6B122B07D19C
:10598000FB681B681A68FB681B6842F480721A6027
:105990003B6800937B6800224FF00111F86800F02B
:1059A0001DF90346002B0DD0FB681B681B6803F430
:1059B0008073B3F5807F03D1FB684FF400721A64E3
:1059C000032335E0FB681B69B3F5804F08D17B8961
:1059D000DBB21A46FB681B6802F0FE021A611BE08C
:1059E0007B89DB11DBB203F00603DBB263F00F034C
:1059F000DAB2FB681B681A613B687A680E49F8687E
:105A000000F043F90346002B01D0012310E07B890D
:105A1000DAB2FB681B681A613B687A680749F86864
:105A200000F033F90346002B01D0012300E00023EE
:105A300018461837BD4680BD08000100020001006D
:105A400080B588B002AFF8607A603B600B467B811E
:105A5000FB68DB6A7B61FB681B681A68FB681B6874
:105A600042F480621A607B69082B06D07B69012BA7
:105A700003D07B6913F5803F08D1FB681B681A6867
:105A8000FB681B6842F480721A600BE0FB681B6BBA
:105A9000112B07D1FB681B681A68FB681B6842F46E
:105AA00080721A603B6800937B6800224FF00111FE
:105AB000F86800F093F80346002B0DD0FB681B68D4
:105AC0001B6803F48073B3F5807F03D1FB684FF448
:105AD00000721A64032379E0FB681B69B3F5804FF9
